:040000006F20401716
:100004000000000000000000900000206E070020A7
:10001400A9BDF9F528080020000000000000000038
:1000240028080020900000200000000000000000CC
:10003400900000200000000090000020000000005C
:1000440090000020900000209000002090000020EC
:1000540090000020A020002090000020000000005C
:1000640090000020900000209000002090000020CC
:100074008E08002090000020A4080020900000209A
:1000840090000020900000209000002090000020AC
:1000940001A04111814601468145114506C6EF0084
:1000A400B06BB727004011472383E780B7F700E020
:1000B400938707D0984B6D9B98CB984B5D9B98CBBF
:1000C4007300501001000100B2404101828001110F
:1000D400814601468145114506CEEF00F067B727FA
:1000E400004011472383E780B717004083C6E70227
:1000F40003C5E7041307800893F6C60F136535009C
:1001040093E61600733607801376860832C0010022
:100114000100930570052380B704130680FA238039
:10012400C704010001002382070223800704024858
:100134007328088001000100733807801378880849
:1001440042C2010001002380B7042380C7040100D8
:1001540001002387D7022387A7042380070492463C
:10016400F3A6068001000100F336078093F68608A3
:1001740036C4010001002380B7042380C7040100B2
:10018400010083C6B70493E60602A385D70423803F
:100194000704A246F3A6068001000100B7F600E0BA
:1001A400938606D0884A1365450088CA884A5D99B3
:1001B40088CA730050100100010073370780137759
:1001C40087083AC6010001002380B7042380C704CE
:1001D4000100010003C7B7041377F70DA385E704F3
:1001E40023800704B247F3A7078001000100F2400F
:1001F400056182803971B7F5070022DC81462A84C3
:100204003010E105194506DE02D423160102EF0081
:10021400B054B717004083C6E70203C5E7041307C9
:10022400800893F6C60F1365350093E616007336FF
:1002340007801376860832C6010001009305700515
:100244002380B704130680FA2380C7040100010049
:1002540023820702238007043248732808800100A0
:100264000100733807801378880842C80100010030
:100274002380B7042380C704010001002387D70229
:100284002387A70423800704C246F3A6068001003F
:100294000100F336078093F6860836CA0100010090
:1002A4002380B7042380C7040100010083D607021A
:1002B40071757D15E98E2390D70223800704D246F9
:1002C400F3A606800100010037F500E0832605D17E
:1002D40093E646002328D5D083D607026575110519
:1002E40093F60660C18EC98EC206C182733507803B
:1002F400137585082ACC010001002380B7042380EC
:10030400C7040100010003C5F70013650504A387B2
:10031400A7002390D70223800704E246F3A60680B1
:10032400010001009166758C1DE87337078013770F
:1003340087083ACE010001002380B7042380C70454
:100344000100010003C7B70413670702A385E7048C
:1003540023800704F247F3A707800100010037F761
:1003640000E0832707D1DD9B2328F7D073005010CA
:100374000100010013078008F337078093F787080B
:100384003ED001000100B71700401305700523801B
:10039400A704930580FA2380B7040100010083D6E3
:1003A400070271767D16F18E2390D702238007040D
:1003B4008256F3A60680010001000DEC7337078016
:1003C400137787083AD2010001002380A704238011
:1003D400B7040100010003C7B7041377F70DA38521
:1003E400E704238007049257F3A707800100010064
:1003F4005145FD2EF250625421618280397152D4EC
:1004040081462A8A01468145114522DC26DA06DE28
:100414004AD84ED637140040EF0010348347E40224
:100424000347E4049304800893F7C70F1367370066
:1004340093E71700F3B6048093F6860836C60100E6
:1004440001009309700523003405130980FA230081
:100454002405010001002302040223000404B2461F
:10046400F3A6068001000100F3B6048093F6860823
:1004740036C80100010023003405230024050100CF
:1004840001002307F4022307E40423000404C24701
:10049400F3A707800100010013055002D928B7F71C
:1004A40000E0938707D0984B1367470098CB73B746
:1004B4000480137787083ACA010001002300340539
:1004C40023002405010001000347F4001367070417
:1004D400A307E400230004045247732707800100A4
:1004E400010073B70480137787083ACC0100010038
:1004F4002300340523002405010001002167336A29
:10050400EA0023104403230004046247732707808E
:1005140001000100984B5D9B98CB730050100100C3
:1005240001008146014681451145EF00F022F3B4F4
:10053400048093F4840826CE0100010023003405CE
:1005440023002405010001008347640493E7170096
:100554002303F40423000404F247F3A707800100F3
:100564000100F2506254D2544259B259225A2161C4
:100574008280011113078008F337078093F78708F7
:100584003EC201000100B7170040930570052380A7
:10059400B704130680FA2380C7040100010083C650
:1005A400B70493F6F60DA385D70423800704924677
:1005B400F3A606800100010093760502D5CEF3363A
:1005C400078093F6860836C4010001002380B7042F
:1005D4002380C70401000100B70614007D89558DEE
:1005E40088C7010001000100010023800704A2461E
:1005F400F3A606800100010073370780137787088C
:100604003AC6010001002380B7042380C704010017
:100614000100010001003727004093061005A303E1
:10062400D78023800704B247F3A7078001000100A5
:1006340093078008F3B7078093F787083ECE01003D
:100644000100B7170040130770052380E704130760
:1006540080FA2380E7040100010003C7B70413678D
:100664000708A385E70423800704F247F3A707805C
:10067400010001000561828093760504BDC6F3364E
:10068400078093F6860836C8010001002380B7046A
:100694002380C70401000100B706140093860604F2
:1006A4007D89558D88C70100010001000100238068
:1006B4000704C246F3A606800100010073370780D1
:1006C400137787083ACA010001002380B704238006
:1006D400C704010001003727004093062005A30347
:1006E400D78023800704D24781B7733707801377F5
:1006F40087083ACC010001002380B7042380C70493
:100704000100010098471367070C98C7238007046A
:10071400E24719BF0111814601468145114506CEC4
:10072400EF00900393078008F3B7078093F78708D7
:100734003EC601000100B71700401307700523806F
:10074400E704130780FA2380E7040100010003C7CC
:100754006704136717002383E70423800704B24761
:10076400F3A7078001000100F24005618280411176
:100774008146014681451145EF00007E130780083C
:10078400F337078093F787083EC401000100B717C9
:100794000040130670052380C704930680FA238063
:1007A400D70401000100FD552396B70223800704F6
:1007B400A245F3A505800100010073370780137774
:1007C40087083AC6010001002380C7042380D704A8
:1007D4000100010003C76704136717002383E704BC
:1007E40023800704B247F3A707800100010001A09A
:1007F400BD473305F50201007D1575FD8280411169
:1008040022C426C206C6AA84014463179400B240D7
:10081400224492444101828005041305803E42042F
:10082400C13F4180DDB700009305000273A04580FD
:1008340082457390153492402242B2424243D243DD
:100844006244F244025592552256B2564257D25748
:100854006258F25806499649264AB64A464BD64B40
:10086400664CF64C065D965D265EB65E465FD65FC8
:100874000961730020304111B7170040985F3AC6F0
:10088400945F3247E39CE6FE324541018280B7170C
:100894000040130700032388E702854723A4F1845B
:1008A40073002030411122C626C44AC2972000E0BA
:1008B400E7806001C167E98F2A8493740540638FE0
:1008C40007269377150099C703C59185972000E003
:1008D400E78080E5B70704003377F4006309071065
:1008E40093876708E18F95CB83C7618503C75185DB
:1008F4009386618563F2E70A03C70600930717002E
:1009040093F7F70F2380F60093878197BA9703C56F
:100914000700972000E0E78020E19DC03705001024
:1009240013050540972000E0E78040FB8D472388AE
:10093400F1840545238D0184972000E0E780A0D849
:100944009377041099CF13050010972000E0E780F7
:10095400E0F80545972000E0E780E0D69547238836
:10096400F1849377042091CB13050020972000E0B5
:10097400E780C0F691472388F18405651305058057
:10098400B377A40063820722972000E0E78000F594
:1009940099472388F18409AC83C7818589CB0545B0
:1009A400238D0184972000E0E780E0D1BDB785471F
:1009B400814513050040A38BF184972000E0E78074
:1009C400C0D4814513050020972000E0E780E0D3E0
:1009D400814513050010972000E0E78000D305450A
:1009E400972000E0E78000CC238D01843DB7937706
:1009F400240089CB83C75185E1C30545972000E0D6
:100A0400E78080CE937704049DCB03C96185930767
:100A14001900238BF184972000E0E78080D193872D
:100A24008197CA972380A70003C7518583C761852F
:100A340063FDE7080545972000E0E780E0CAE3810D
:100A440004F03705001013050540972000E0E78007
:100A5400E0E883C4618593871400238BF184972095
:100A640000E0E78000CD93878197A6972380A700B5
:100A740083C78185E39F07EA8547814513050040C5
:100A8400A38BF184972000E0E78020C881451305FB
:100A94000020972000E0E78040C78145130500103F
:100AA400972000E0E78060C60545972000E0E780D6
:100AB40060BF238D018469B50145972000E0E7807C
:100AC400A0C28547A388F18435BF0145972000E083
:100AD400E78080C19387118503C7070021CFA388CE
:100AE400018483C7818589CB0545972000E0E78091
:100AF40080BD238D0184A1B785478145130500403E
:100B0400A38BF184972000E0E78020C08145130582
:100B14000020972000E0E78040BF814513050010C6
:100B2400972000E0E78060BE0545972000E0E7805D
:100B340060B7C1B705472380E70011B79377250055
:100B440095CBB707040093870708E98F1387A1851E
:100B5400DDC391472300F700238A0184A38901841C
:100B640083A7C18481CB9C4391C793853185138529
:100B740081958297B7070400E18FE1C70545972067
:100B840000E0E78060B6B5CC3705001013050540DA
:100B9400972000E0E78080D40545972000E0E780B7
:100BA400A0B40144238D01848567E18F89CB056559
:100BB400972000E0E78080D29D472388F1849167E5
:100BC400E18F89CB1165972000E0E78020D1A14710
:100BD4002388F184A1677D8C09C82165972000E0F2
:100BE400E780C0CFA5472388F1843244A244124948
:100BF4004101730020308D472300F70023890184CD
:100C040095BF93774408E38D07D283C7418503C713
:100C14003185938641851305F00F63FFE70003C711
:100C240006009307170093F7F70F2380F6009387C6
:100C34008195BA9703C50700972000E0E780C0AE0E
:100C440001B393770404A1C383C62185FD471387A9
:100C54002185014563E5D7028347070013F9F70FA0
:100C6400850793F7F70F2300F700972000E0E7804C
:100C740040AC93878193CA972380A70005459720AA
:100C840000E0E78060A6937704018DC737570040E2
:100C94008357078093E717002310F78083A7C18445
:100CA40081CBDC4391C783C52185138581938297CA
:100CB40023890184E38604C8370500101305054021
:100CC400972000E0E78080C10545972000E0E78099
:100CD400A0A1BDB1411122C406C6971000E0E7806F
:100CE400005F1387B185834707001384E185850777
:100CF40093F7F70F2300F700E207E18763D80700B3
:100D0400971000E0E78080532310A400B717004039
:100D14003947238CE704971000E0E780E05D8317F0
:100D24000400B24022443E959307A0413305F502E6
:100D34009307002041013345F502FD779387273B54
:100D44003E95420541818280011122CC2A840545C9
:100D540006CE2EC6972000E0E780200EB2452285FD
:100D6400972000E0E7808030F2406244133515009C
:100D74000561828039714ED6AA89328506DE22DC6D
:100D840026DA4AD852D456D22E89971A0000938A6A
:100D94006A52328497E001E0E780007503A60A00F6
:100DA40083A64A0097D001E0E78080452A8A4A85D5
:100DB400AE8497E001E0E780207303A60A0083A6CF
:100DC4004A0097D001E0E780A043AE872A87A6882F
:100DD40017F601E0130606AB5288CE86D9452800E3
:100DE40097D001E0E78020C8280097F001E0E78071
:100DF400C0A3971400009384E437B947A381F40097
:100E0400A5472382F400B547354663E3A7002A8645
:100E14002C001715000013053536971000E0E78005
:100E24008040A38E84002180238C3401239D2401DF
:100E3400238F8400F2506254D2544259B259225A38
:100E4400925A2161828001119305E100680006CE67
:100E5400E53D11E5FD572316F1002317F1009D3DF3
:100E6400FD779387473EAA972147B3C7E702130745
:100E740040060356E1008355C10013F5F70F93F7BD
:100E8400F70F6374F70013054006ED35F240056172
:100E94008280411106C6EF00E077F5BF230304808A
:100EA40015472303E48001002302A4808280830782
:100EB4006480E3CE07FE230304808280830764807A
:100EC400E3CE07FE03454480828083076480E3CE3B
:100ED40007FE2302A4808280411126C44AC24EC068
:100EE40006C61377F50BAD47AA892E899544630688
:100EF400F70019456537653F8D444E854537FD59E3
:100F0400FD1463983401B240A2441249824941015C
:100F14008280135509011375F50F453F2209CDB79A
:100F2400011126CC06CEB704080051371545BD374C
:100F3400713769372AC6A53F32459377150089EB87
:100F4400136515001375F50FF240E24405618280C4
:100F5400FD14E9FC0145CDBF397126DC4ADA4ED8CF
:100F640052D656D45AD25ED006DE62CE66CCB7E7ED
:100F740000E07D5783AA070022C603AA470023A0E6
:100F8400E71823A2E718B71700401307700523805A
:100F9400E704130780FA2380E70483C74704930B0D
:100FA40075FFB684E20793FBFB0F8546AA892E8B57
:100FB400328937240040E187015763FA76016308D8
:100FC400D5008946130700026313D5000157D98F52
:100FD40093F7F70FB71C00402382FC041147230347
:100FE400E4801305F00F5D3D094CD135636D7C1130
:100FF400B7050700DA9537870700795563F2E504EA
:10100400B3879500636EF702370B0800A94733EBEB
:1010140065016399F90689E48144513D26850DA053
:10102400DA850945553D05090345F9FFFD14050B0E
:10103400693D81C49377FB0FFDF7DD3569FD7D556F
:10104400B7170040130770052380E704130780FADD
:101054002380E70403C74704418B2382E704F2504B
:10106400B7E700E023A0571123A24711E25432440A
:101074005259C259325AA25A125B825B724CE24CE8
:1010840021618280A5476395F90685691309F00FEC
:10109400B3069900B3742B01B6941349F9FFB374E2
:1010A4009900856B33796901416B9387F9FFB3F735
:1010B400270199E363FC340193D94900C147E3E66E
:1010C40037FF99BF0569C1697D19D9B71305800D2B
:1010D400638869011305000263847901130510080C
:1010E400CA85DD3B353D21DD4E99B3843441D9B702
:1010F400DA852D45D533CA94E30099F205097D3B81
:10110400A30FA9FED5BF9387F9FF93F7F70F636188
:10111400FC0C83C71C0413073008631FF70437074C
:101124000800636BEB04B3079B00B706100063F57C
:10113400D704334BEB0089476393F9068980D5497B
:10114400E38C04ECDA850945413B11090327C9FF07
:1011540091472320E48003076480E34E07FE2303C2
:101164003481FD17EDFBFD14110B81C49377FB0F44
:10117400E9FF7D3371F5E1B5B717004003C75704A4
:10118400B70708001377070219E3B78707007955F3
:10119400E378FBEA33079B00E3FFE7F855B585479F
:1011A400E382F9F2DA852D45053B9389F4FFE38563
:1011B40004E6293393F7390091EB8326048003274F
:1011C400090093074900E39AE6E43E89CE84F1BF1F
:1011D400B5476396F9001305900BC93135BDB14786
:1011E4001305B00AE38BF9FE99476391F904B70537
:1011F4000800B365BB002D45C53181448D4BA14921
:10120400753963967401832704802320F9008504CB
:10121400E39834FF8327048013172B0163550700D9
:101224002312F900D5BB2322F900FDB39D4763992E
:10123400F90281451305B0044531BD44232009005A
:1012440023220900FD599D3993F77400CA9703C7F7
:101254000700FD14398D2380A700E39634FF6DBB8E
:10126400A1476392F9046D398144630D0B008D47E6
:101274009304C0036308FB009304000563048B011B
:10128400930440041375C507E30895D8194539310B
:1012940039390545213126850D3909453D31493115
:1012A400E31C05D669BB91476399F90013056006F1
:1012B400F536F53E130590090DB7E38F09D4F154C3
:1012C400A9BBB7C7004003A7C72023A607200F1058
:1012D400000001C599C1814711E6B7C7004023A6A4
:1012E400E7208280B386F50003C80600B306F50044
:1012F400850723800601E317F6FEC5B737C700400C
:101304008327C720232607200F10000019C191C18D
:1013140011E637C700402326F7208280910503A7F2
:10132400C5FF11057D16232EE5FEDDB737C7004046
:101334008327C720232607200F10000001C5330789
:10134400C50011E637C700402326F7208280050533
:10135400A30FB5FEE31DE5FEF5B7B7C7004083A6AE
:10136400C72023A607200F10000081473307F5008C
:101374000307070019E737C700402326D7203E8517
:1013840082808507E5B7011126CA4AC8B7C700405D
:1013940006CE22CC83A4C7202A892E8623A6072022
:1013A4000F100000131506019305F004418132C6A5
:1013B400EF0090222A8401C53246CA851937228556
:1013C400F2406244B7C7004023A697204249D24462
:1013D40005618280B7C7004003A7C72023A6072062
:1013E4000F10000001C599C1814711EAB7C7004039
:1013F40023A6E720054582808507E309F6FE330826
:10140400F500B386F5000348080083C60600E3052B
:10141400D8FEB7C7004023A6E72001458280B7C79E
:10142400004003A7C72023A607200F10000093073E
:10143400F6FFBE952A966317C500B7C7004023A6DA
:10144400E7208280FD1583C715000505A30FF5FE6F
:10145400DDB737C700408327C720232607200F1096
:10146400000001C53307C50019E637C7004023262D
:10147400F7200145828005058346F5FFE397B6FE14
:10148400E31BE5FE37C700402326F720054582808D
:101494007971973700009387A78122D4804306D6B9
:1014A40026D24AD04ECE52CC56CA5AC85EC679C04D
:1014B400B7C4C901014B972900009389E97E93843D
:1014C400F437172A0000130AEA7E972A0000938A49
:1014D4006A7917390000130969828357240095E358
:1014E4005C44631D0B00172700002323F77C832B28
:1014F400C4002285EF00301D5E84B9A82326FB00BA
:10150400FDB783A7090082971C443307F54063762F
:10151400F500032749001D8F2A9763E2E408972703
:10152400000023A907748355240003450400972071
:1015340000E0E780A0225C405844A1CB0C44032681
:101544004900AE97BE8663E4B70063E4C700B38680
:10155400C74014C4228B3A8449F09727000093872C
:1015640067709C4B05476372F706FD171727000049
:101574002322F770B250225492540259F249624A1B
:10158400D24A424BB24B4561828063170B009727C6
:10159400000023AFE770A1BF2326EB0089BF032718
:1015A4004A0209CF63EFA7003385A74083A70A0146
:1015B4006376F5009727000023AEA76A228B404488
:1015C40061BF03274900BA97C5B79727000023A333
:1015D400076A4DB7972700009387C7719C4385C35B
:1015E400411106C682979727000083C7C76B89E716
:1015F4009727000023A00770B240410182809727FB
:10160400000083C7476A91E79727000023A4076E69
:1016140082808280411122C417240000130444678D
:101624001C4006C626C24AC091C78297972700006D
:1016340023A007665C4091C382971C40639C071CEF
:101644001737000003477785954797340000938444
:1016540064846301F71C9727000083C7E76A8DE35E
:1016640083C75400858B89CF83C774001947631CD3
:10167400F70E97370000A381078299265C4482976E
:101684001C4491C382971729000013092962032778
:101694000900172600000346F65C9727000083C75D
:1016A400675C93961700BA9683D60600E9CA972713
:1016B400000083C7275B63EEC70C972700002383D2
:1016C400075A1C406398071483C7740015476303C3
:1016D400F7149727000083C7777C91CF83C77400E2
:1016E40093F7F70F89EB97270000A389077A9700F0
:1016F40001E0E7808072972700009387E75A9C43B4
:10170400638A0710972700009387475FDC431727F6
:1017140000002321F756AD3B972700009387875994
:10172400DC53EDCB83C7740015476365F70E972729
:10173400000083C7E77A918BF1EF9727000083C7F6
:101744008756E9EB032609009726000083C69651C5
:1017540063C8D70C2244B240924402494101172382
:1017640000E06700E35583C774001D47E31AF7F0F0
:1017740097270000A3820772A1241C4809B7850794
:1017840093F7F70F97260000238EF64CE3E7C7F094
:1017940039BF86073E978355070023100700972714
:1017A400000023910750972700009387274E9C43FE
:1017B400172500000345054B13172500BA979C43D2
:1017C40082979727000083D7E74D17270000034728
:1017D400674993C7F7FF7D8D931717000327090007
:1017E4003E97835707005D8D2310A70097270000BD
:1017F40083C7474791C78507172700002304F74687
:1018040017270000034707469727000083C797451B
:10181400E375F7EAB24022449244024941018280CE
:10182400139717003297035707006DF785070DB715
:1018340037C700408326C720B707FCFFFD17F58F85
:101844002326F7200F100000972700009387874175
:10185400C84F832787262326D7206A0593C7F7FF17
:1018640099835D8D82800111972700009387877289
:1018740022CC03A4870B26CA06CE2AC42EC68544CE
:1018840019E40145F2406244D244056182808347F1
:10189400910003471400858B6304F7000044CDB71F
:1018A40019469305A100130524002D36E31895FE6F
:1018B4000545C9BF172700001307075D14434111ED
:1018C40022C49C5E4AC006C6998326C2858B3A848C
:1018D400172900001309095BD1CB930700069CDE8E
:1018E400172700000347675B93070008972400004D
:1018F4009384445A631BF700832709009C4393F79E
:10190400070417270000230AF75883C7040093F736
:1019140007049DC397270000938707399C43829748
:101924009727000023A0A75883C7040093F7F70B59
:10193400172700002300F75683C7440093F70704D2
:1019440095E7854717270000A308F7549727000059
:10195400938707569C433707020098C7130700FC78
:1019640097260000238AE652D844F8D318401C5F17
:101974009183858B8DC31C5F93E707011CDF972739
:1019840000009387E7529C4323A207068547172745
:1019940000002303F75083270900D8430583058BF0
:1019A40019C7D843759BD8C3D843799BD8C3B240D1
:1019B40022449244024941018280ED3D730020306B
:1019C400972700009387C74E944397270000938777
:1019D400674C03C70700058B11CB97270000238DA5
:1019E400074A97270000A389074A828003C7170084
:1019F400058B65F7F85271FF83C75700DDB71727CA
:101A0400000013076748032807008327880395838A
:101A1400858BADEF11C683270803BD832300F60031
:101A24009DC61C43985B460793576701635607009E
:101A340093E707C0C207C18303970600C207C187A3
:101A440009C7BA970947B3C7E7022390F6008DCDBB
:101A54008345150095C99727000083C7074493F76A
:101A6400070413879500894585C33A958347050084
:101A74000547994593F6F7066398E600E207E18780
:101A8400814563D30700B9452E8582808545EDBF26
:101A9400411122C406C617240000130464411840EF
:101AA40049E9AE877453FDFE3E85B2859727000051
:101AB4002383073E970001E0E780001D972700007D
:101AC4009387873C9C43B70680009843558F98C3FF
:101AD400D857719BD8D797270000A38F073A972729
:101AE4000000A389073A1C40094798C3B7F700E0F0
:101AF40003A707D16D9B23A8E7D003A707D15D9B5C
:101B040023A8E7D0730050101440172700001307D0
:101B1400673883472700858B89EB83473700858B9C
:101B2400C1C39727000023890736B24022444101EC
:101B340082808D476310F502972700009387C7348E
:101B44009C43B70680009843558F98C3D857719B20
:101B5400D8D75DBF8547E319F5FA54478177FD1758
:101B6400F58F5CC70F1000001840B70702001CC7B0
:101B7400930700F8172600002300F6329727000089
:101B8400938787309C439C439D83858B6397A700F1
:101B9400930760197CD354C785BF9307E01BDDBF4F
:101BA400FC52A5FB59B7411122C4172400001304A9
:101BB40024301C4006C6D8479316D70063D60602C5
:101BC40098479316D70063D106027D57B8D71727D5
:101BD400000013072709584F05079726000023A183
:101BE400E60A3707040098C798470D83058B1DC381
:101BF400172700000347272A1367170097260000BA
:101C0400238BE628130700F8972600002386E6288E
:101C1400214798C79847058B09CF1727000003472A
:101C240077271367170097260000A385E626054744
:101C340098C798470983058B09E798470583058B5F
:101C440031C317270000A3090724984797260000EB
:101C5400938646240983058B6302071003C7060095
:101C640013671700972600002386E622114798C7BA
:101C740017270000130747211443D856719B136795
:101C84001700D8D698479316F70063D6060297260E
:101C9400000083C66637C18A172700001307872F01
:101CA400E1CA034747071367070297260000238DFD
:101CB400E634416798C798479316E70063D2060253
:101CC400172700000347471D620761876357070012
:101CD4000547972600002381E61C3707020098C7B2
:101CE40098479316C70063D706029726000083C659
:101CF400B631858A172700001307C729C1CA0347CD
:101D040057071367270097260000A38FE62E37078F
:101D1400080098C798479316B70063DD0602370793
:101D2400100098C79727000083C707FE85C71727A9
:101D34000000034797169547630EF70097270000A6
:101D44009387C7139C4391C382971840B7071F001A
:101D5400BD075CC7B24022444101828003C73600FC
:101D64001367170097260000A387E612094701B7F7
:101D7400834647070946BD8A6388C6000347470769
:101D84008D463D8BE317D7F2114705B783465707B6
:101D9400918AB5DE0347570713678700ADB79727C6
:101DA40000009387E71098438967938707F47CD3EF
:101DB40097270000938707159C4383A6070913966A
:101DC40056006358060083A6070913966600634409
:101DD40006007453FDF28280411122C4B7C700404B
:101DE40006C603A4C72023A607200F10000011C1B4
:101DF40099E5B7C7004023A6872001457DA893072E
:101E04003500C207C183F19BC207C1831307400396
:101E14006369F7021727000013078717084317277A
:101E240000001307671614436392A60217270000E5
:101E3400130747E8185B55DFC207DD8D0545029798
:101E44004DBF1727000013076714C9BF0357650068
:101E54002DEB035745006366F706B306F7402146AA
:101E6400637CD60203280500938687001D8FAA96FB
:101E7400611717260000035646DF2392E60023A0CD
:101E840006012393060014C12312F500130786FFED
:101E940097260000239BE6DC2313B500972500005A
:101EA40083D5A5DCB387F54017270000231FF7DA95
:101EB400B7C7004023A687202105B2402244410130
:101EC4008280084195B7B7C7004003A8C72023A65E
:101ED40007200F10000001E523A607218280972721
:101EE40000009387E70A03AE070097270000938753
:101EF400A70903A307008146F28763F0670C83A850
:101F04000700636FF50A63EDA80A13878700636609
:101F1400E50A03D66700216705076317E60003C7D0
:101F2400418D0507238AE18C97250000938585D38D
:101F340003D6470003D7650023930700329742076F
:101F44004183172500002312E5D2638AC7031725AE
:101F540000001305A50308416303F50203D56600D9
:101F640019ED83D7460023A0160121073E962106CA
:101F74002392C600972700002399E7CEB68798439B
:101F8400630D670297260000938646009442630619
:101F9400D7028356670095E283D64700035647006D
:101FA4001843A106B2962392D70098C383D765003D
:101FB400A10717270000231AF7CAB7C7004029BF93
:101FC400BE86C6871DBF011197270000938787FC33
:101FD40022CC03A4070C26CA4AC84EC606CEAA843D
:101FE40013092500854915C083C71400034734002D
:101FF400858B6304F700405CFDB7194693054400E4
:102004004A85EFF02FBDE31835FF2285F240624484
:10201400D2444249B24905618280411197270000A8
:10202400938747F722C403A4070C26C24AC006C6F6
:1020340093042500054901E82285B24022449244D4
:10204400024941018280A6851305A40297B001E0EC
:10205400E780E0DCE30225FF405CF1BF41119727F4
:102064000000938727F322C403A4070C26C24AC0A6
:1020740006C693042500054901E82285B24022449E
:102084009244024941018280A6851305A40197B0B8
:1020940001E0E780C0D8E30225FF405CF1BF000007
:1020A400197106C212C416C61AC81ECA22CC26CE7C
:1020B4002AD02ED232D436D63AD83EDA42DC46DEA4
:1020C400CAC0CEC2D2C4D6C6DAC8DECAE2CCE6CE14
:1020D400EAD0EED2F2D4F6D6FAD8FEDA93850184A9
:1020E4008841E700050092402242B2424243D24373
:1020F4006244F244025592552256B2564257D25780
:102104006258F25806499649264AB64A464BD64B77
:10211400664CF64C065D965D265EB65E465FD65FFF
:102124000961730020300000EFF0CFCA7300000093
:1021340000000000972200009382E2B603830200AD
:1021440023800200630F0300F32510342EC097058B
:1021540000009385A5FD73901534EFF0DFA47300A0
:10216400203086DCEFF03FA4E650828000000000BF
:102174009711002093814190174100201301416879
:102184001305400097E5FF1F938585E71706002098
:10219400130606FE63FAC5008322050023A055003A
:1021A40011059105E3EAC5FE17E50100130505D302
:1021B400970500209385C5FB1386018463FAC50047
:1021C4008322050023A0550011059105E3EAC5FE0D
:1021D4001385018497250020938505EE6377B50068
:1021E400232005001105E36DB5FEFD42739002BC8A
:1021F4008D4273904280930280087390023097E27C
:10220400FF1F9382E2DF93E2320073905230971201
:1022140000009382620673901234730020302A8384
:1022240009CA83830500230073007D160503850511
:102234006DFA8280B717004083C5870503C89705E8
:1022440003C7970593F5F50F1378F80F1367870005
:10225400A38CE70403C797051377B70FA38CE70490
:1022640003C7A70513671700238DE704371700403A
:102274008347A705858BEDFF0565C14637170040E9
:102284009308F5FF0346A70513661600230DC7043C
:102294000346A705058A6DFE0356C705FD16C2064B
:1022A4001346F6FF33761601C182B297E1FEA10709
:1022B4009183130505801D8DA30C07054205230C8E
:1022C400B70441858280B717004003C777051377A9
:1022D400E70FA38BE7043947238CE7040D47A38C4E
:1022E400E70403C7A7051377D70F238DE70482807C
:1022F400371700408347A70593E71700230DF7041A
:102304008347A705858BEDFF0355C705520551810A
:102314008280B717004003C7E7040D894111137782
:10232400C70F498F93068008F3B6068093F6860894
:1023340036C601000100930670052380D704930676
:1023440080FA2380D704010001002387E704238057
:102354000704B247F3A7078001000100410182800E
:1023640041112A830148930E407E130F0019930FE5
:1023740040069318030193D8080163EF1E01130369
:102384000019337365028542FD4363F0B20A8D4F31
:10239400214F930E400689A87D13336EE3039308FF
:1023A400E016630E0E00336EF3039308D016630831
:1023B4000E009378330093B818009388D816C29807
:1023C40013980801135808016DB793F81500138E7C
:1023D400F5FF6371BF04F908C298139808019315B7
:1023E4000E0113580801C181E391F5FF8545630B84
:1023F4000300B378D50381456386080093753500DF
:1024040093B51500F105C2951398050113580801F9
:102414008945D9BFB3881341C2981398080193150D
:102424000E0113580801C1818DB77D163298794683
:102434003307C70213D61700BE0742081358080112
:1024440032976146B3F6C60213068070B386C6029D
:102454003697A166F58F4207D98FB716004003C798
:10246400F60213770708A303E1000346710003C7CC
:10247400F60213770708E314E6FE03477100B71664
:1024840000405DCF130780087337078013778708F0
:102494003AC4010001003717004093067005230079
:1024A400D704930680FA2300D70401000100232AED
:1024B40007038346170393E60608A308D7022300FD
:1024C40007042247732707800100010011663717AC
:1024D40000407D16545B4C5FAD8EF18EE5FE930695
:1024E4008008F3B6068093F6860836C6010001001C
:1024F400930670052300D704930680FA2300D704BB
:10250400010001005CDB8347170393E70704A3087A
:10251400F70223000704B247F3A707800100010074
:102524004101828003C7F60213770708A303E10081
:102534000346710003C7F60213770708E314E6FEA7
:102544000347710065D33DBF4111B7170040985F41
:102554003AC6945F3247E39CE6FE324541018280ED
:10256400914763EAB70897D701009387A72D8A0597
:10257400BE9598413E97B71700409387470B028753
:1025840094431345F5FF37170040E98E94C393062F
:10259400070B9C42E98F9CC29307070A9843798DE5
:1025A40088C3828090439346F5FF37170040758EA9
:1025B40090C31306070B1C42C98F1CC29307070A5A
:1025C4009843F98E94C38280944337170040C98E90
:1025D40094C39306070B9C421345F5FF65BF9443D0
:1025E4001347F5FF758F98C3B71700409387070A01
:1025F4009843498F98C382809843498FEDB7914798
:1026040063EAB70897D70100938707258A05BE9523
:1026140098413E97B71700409387470D028794432C
:102624001345F5FF37170040E98E94C39306070D51
:102634009C42E98F9CC29307070C9843798D88C309
:10264400828090439346F5FF37170040758E90C300
:102654001306070D1C42C98F1CC29307070C98432D
:10266400F98E94C38280944337170040C98E94C373
:102674009306070D9C421345F5FF65BF944313472A
:10268400F5FF758F98C3B71700409387070C9843DD
:10269400498F98C382809843498FEDB737570040DC
:1026A4008357078011C593E707102310F7808280B2
:1026B400C207C18393F7F7EFC207C183FDB737574A
:1026C40000408357078011C593E707202310F78044
:1026D4008280C207C18393F7F7DFC207C183FDB7C6
:1026E400375700408357078011C593E707402310ED
:1026F400F7808280C207C18393F7F7BFC207C18303
:10270400FDB737570040835747804205418189C54B
:10271400C98F2312F78082801345F5FFE98FD5BF57
:10272400B75700402398A7808280B757004003D54D
:1027340007811375F50F8280375700408357078050
:1027440011C5A166D58F2310F7808280C607C58383
:10275400DDBF011126CAB754004052C43E8A83D754
:1027640004804EC6BA892167D98F06CE22CC4AC8C6
:1027740056C25AC02390F4802A8901452E84328B94
:10278400B68A5D3F492437480F001308082433589C
:10279400050383D74480C207C18393F707FCC207AC
:1027A400C1832392F48083D74480B3E70701C2072F
:1027B400C1832392F48083D70480C207C183F99B29
:1027C400C207C1832390F480E1679387076A63E4B7
:1027D400870A06043354850285671387C7FF1146A9
:1027E40042044180618F01C7FD173376F400050868
:1027F4009307F00363F407011308F0034208B75783
:1028040000401358080123900783B7550040239EC6
:10281400C58083D70580F240624493E71700239074
:10282400F58083D70580D244024BC207C18393F756
:1028340057BFC207C1832390F58003D50580336554
:10284400550133652501420541812390A58083D735
:1028540085802394058083D685804249924AB3E7D4
:10286400460133E73701420741832394E580B249A7
:10287400224A05618280631A0B028D45B305B402B6
:10288400B355B502D205D1812E8691E105464206A3
:102894004182A1675D8E9307C0123308F802930743
:1028A400803E3358F802050891BFE5473304F4022B
:1028B400916733568502520651825D8ED9BFB75750
:1028C400004003D7478103D587814205598D2205EE
:1028D400218182801345F5FF42054181B7570040AD
:1028E400239AA7808280797122D43714004026D29B
:1028F4004AD0035924028354040206D64209C2046E
:102904004ECE52CC56CA13590901C1802DE1137918
:10291400F9F793F4F49F4209C20413590901C180E1
:1029240093078008F3B7078093F787083EC4010034
:102934000100930770052300F404930780FA230031
:10294400F404010001002311240323109402230042
:102954000404A247F3A7078001000100B2502254E7
:1029640092540259F249624AD24A45618280B7F5CB
:10297400070081463000B105194597E0FF1FE78045
:10298400A05D22478967F98FF1FB1369090893E475
:10299400044093098008F3B7098093F787083EC081
:1029A40001000100930A700523005405130A80FAFC
:1029B4002300440501000100231124032310940281
:1029C400230004048247F3A707800100010029457E
:1029D40097E0FF1FE780C0E1F3B9098093F9890804
:1029E4004EC20100010023005405230044050100E8
:1029F40001008357040293E707202310F402230005
:102A04000404924781BFB717004098479317070102
:102A140013770704C18309EBFD8B3755E8011305D0
:102A240005803345F502828013F7070C93060004F2
:102A34006316D700FD8B37459C1CD5B7216513055C
:102A440005D0828037E700E01C435443A183E206AB
:102A5400D58F1CC1FD572320F7182322F718828035
:102A640013178500B7E700E023A0E710618123A2D4
:102A7400A7108280B7F700E08847CC4782804111D5
:102A84009397050122C406C626C2C1872E8463DE3D
:102A94000700EF00300F19C1EF0070032165218D8D
:102AA400B240224492444101828093F7150013C539
:102AB4001500FDF7916433F595007DD1130600648C
:102AC400916503C54184EF00D05F258C1315040183
:102AD4004181F9B71D71494697D50100938505D900
:102AE40017D501001305C5F886CEA2CC97F0FF1FB9
:102AF400E780408E11E101A037F700E0795610CB52
:102B0400FD5654CBB7E700E0056423A08710930675
:102B1400F00214C323A087180100010017F7FF1F58
:102B24001307476123A0E1844157A38AE7401306B2
:102B3400C0038145480897E0FF1FE780207F97077F
:102B440000209387E78C3ECA896793870780231CFC
:102B5400F100ED472312F1029547A301F1028547E5
:102B64002303F102930754D12314F102B7F50700AC
:102B740097070000938747F03EDA814697070000E5
:102B8400938727167000E10519453EDC97E0FF1F87
:102B9400E780803CB2473ED6835701012318F102F7
:102BA400D24789C78357810163F3870001A048088E
:102BB400EF10003F11C101A0F640664425618280F8
:102BC4004111170500001305C5EB06C6EF10803947
:102BD4002382A184B120B240410171A24111930723
:102BE4008008F3B7078093F787083EC60100010009
:102BF400B7170040130770052380E704130780FA12
:102C04002380E70401000100C8DB23800704B247E6
:102C1400F3A707800100010023A4018441018280FD
:102C2400797106D613078008F337078093F787086E
:102C34003EC401000100B7170040930570052380CE
:102C4400B704130680FA2380C7040100010083C679
:102C5400F70293F6D60FA387D70223800704A24670
:102C6400F3A60680010001007337078013778708F5
:102C74003AC6010001002380B7042380C704010081
:102C8400010003C7F70213675700A387E7022380F5
:102C94000704B247F3A707800100010081470147F9
:102CA4008146054685451305407EEFF06FEB080825
:102CB4004146814597E0FF1FE7804067B707C0A8FA
:102CC4003ECAB78732003ECC080897E7FF1F9387B8
:102CD40087BA3EC8EF10605AB25045618280011134
:102CE40022CC06CE930740031304C5FC63E7A70078
:102CF4003704C0A81304C4FC2A946800A133A93083
:102D0400B307A4406376A400B707C0A8A297898F2D
:102D14003747F6A69387F7FD1307F7C5637AF700DD
:102D240032450944353BF240228562440561828084
:102D340022856D3532452D3303A481841DE0116550
:102D4400690597D0FF1FE780E04A0545EFF06FDC87
:102D5400EFF08FFF2AC4EFF02FFFA247E30DF5FE3B
:102D6400D9B70D44C9B7411113078008F337078059
:102D740093F787083EC401000100B717004093058C
:102D840070052380B704130680FA2380C70401006A
:102D9400010083C6E70093E686002387D7002380DB
:102DA4000704A246F3A606800100010073370780DA
:102DB400137787083AC6010001002380B7042380F3
:102DC400C7040100010003C7170313670702A388A0
:102DD400E70223800704B247F3A70780010001003C
:102DE400B7E700E03707001023A0E7104101828015
:102DF40083470500214793968701E186860763D4BC
:102E0400060093C717037D1793F7F70F6DF7034772
:102E1400150033C5E700A14713178501618706052F
:102E24006354070013451503FD171375F50FEDF7EC
:102E34008280238D01840547238CE184A38B018444
:102E4400B72506004111AA87116793060040116651
:102E5400938505A8014506C6ED3885451305004050
:102E64004D3085451305002069388545130500104C
:102E74004938B240B7E700E03707004023A0E71025
:102E840041018280011126CA06CEB68422CC4AC8EA
:102E94004EC69306000263E0C60C83C6A1852A844D
:102EA4001389A185795599E209EA0145F240624402
:102EB400D2444249B2490561828089462300D9003F
:102EC400238CE1842388018413858197A38AC18498
:102ED400238B0184EFF0AFB4A38C018483C7918565
:102EE4000604C18F0145A38CF184EFF04FFD03C7A5
:102EF4007185854793899185631BF704A38B0184AE
:102F04003754004003C50900EFF09F8183570480C4
:102F1400918BEDFB854513050040EFF08FFE854551
:102F240013050020EFF0EFFD854513050010EFF0C9
:102F34004FFD91C4894703470900E30EF7FE83C799
:102F44000185A5D703C501853305A04085B705458F
:102F5400EFF0CFF4F9BF7D5591BF9307000263E111
:102F6400C710011152C406CE22CC26CA4AC84EC686
:102F740056C25AC083C7A1852A88138AA185795568
:102F8400CDEF3284014555CA854A23005A01238C6A
:102F9400D18423880184238B018413899185930729
:102FA400F6FF23005901BA84A38AF18483470900F8
:102FB4000608AE89B3E7070193F7F70F2300F9007A
:102FC400EFF0EFEF83C7718563935709A38B0184F7
:102FD400B75A004003450900EFF08FF483D70A8005
:102FE400918BEDFB854513050040EFF08FF185458E
:102FF40013050020EFF0EFF0854513050010EFF006
:103004004FF00149854A7D5B83470A00639C570161
:10301400054597D0FF1FE780807E0509E38664FF9E
:10302400E34499FE83C7618563E78702228693851B
:1030340081974E85EFF0AF9E2285F2406244D244E0
:103044004249B249224A924A024B056182800545AF
:10305400EFF0CFE47DB703C461851374F40FF9B7BF
:103064007D558280797122D44ECE8D57AA892E84C3
:103074000547854605469305B1001305000426D28D
:1030840006D64AD0A305F100F53BFD5469E51305C6
:10309400500597D0FF1FE7808076130740068546CA
:1030A4000D466C00130500044D3D8D472A89F954E3
:1030B4006313F50A68002D3B8347E100F554639CD4
:1030C400A7080357C1008546054693178700218347
:1030D400D98FF19BC20711671307474AC183B3878E
:1030E400E7027D77130737DB9305B100130500046E
:1030F400C187BA972390F90005479557A305F100B6
:103104005133AA842DE1754597D0FF1FE780206FC6
:103114001307400685460D466C0013050004353D33
:10312400631525056800E9318347E1006391A7042D
:103134000357C100931787002183D98FF19BC207DE
:103144000D67C1831307470DB387E702C1879387D0
:1031540087DA2310F400B25022540259F24926852A
:10316400925445618280F154FDB7ED54EDB7E954B2
:10317400DDB7828041119397050122C406C6C18739
:103184002E8463DD070003C5C185ED2A11C18122A8
:103194002165218DB24022444101828093F71500BC
:1031A40091CB17F5FF1F1305250DEF30810B134548
:1031B4001400CDB713F5250071DD2166130606D082
:1031C400894503C5C185F52D97E0FF1FE780A0C79A
:1031D40097F6FF1F9386C6F97D4685450145EF4066
:1031E4007001134524007DB7011117050000130574
:1031F400A5F806CE22CC26CAEF00D0569384C1850A
:1032040085472380A4002307F1001306E1008D47BE
:10321400854513055030A307F100EF40F151130623
:10322400F100854513058030EF40115117F6FF1F5B
:10323400130606F4FD4513056030EF40F14F0564B5
:10324400930504C80D45EF20F01D930504C81145EE
:10325400EF20501D03C50400130604C885459525B9
:103264001306047C624403C50400F240D244894539
:10327400056181AD4111054506C6EFF0CFE61305A2
:10328400800497D0FF1FE780C02E85457D55EFF061
:103294002FAD85457D55EFF08FB6EFF0BF83EFF08E
:1032A4003F92EF40517B893797E0FF1FE78060BE74
:1032B40023AC05FE1C4191E7010001000CC1828092
:1032C400BA8703A787FF6DFF23ACB7FE8280411145
:1032D40022C426C237C4004006C68324C420232641
:1032E40004200F10000009E9232694201545B2405C
:1032F40022449244410182800347E5FF9307F00F83
:103304006306F700232694201145D5B797F0FF1FD5
:10331400E78060BB014523269420D1BF411126C21A
:103324004AC0B7C4004006C622C403A9C42023A6C9
:1033340004200F10000009E923A62421B2402244EE
:1033440092440249410182809565938505D0C98DD7
:103354002A842105C2054205C181418197F0FF1FDE
:10336400E78080A701CDFD572320050023128500A7
:103374002303F50023A624212105C9B723A624216C
:1033840001456DBF411126C2B7C7004006C622C41D
:1033940083A4C72023A607200F100000971700203E
:1033A4009387C78B904301440147B28791E711E8A3
:1033B400A165EF00007A35A083C6E7FF639DA602EE
:1033C40021C0832684FF631FC4021717002023270C
:1033D400D7887D57232C04FE230FE4FEF1DBA1657F
:1033E400952E2285B2402244B7C7004023A69720D9
:1033F40092444101828011E03E8783A787FF7DB715
:103404003E84E5BF232CD7FEE9B7411126C24AC04A
:10341400B7C4004006C622C403A9C42023A60420BE
:103424000F10000089E523A62421154515A02A8440
:103434009717002083C7D7822E856375F4008947C8
:1034440063EE87006935B7C7004023A627210D45E1
:10345400B2402244924402494101828083A785FFFD
:1034640099E703C7E5FF9307F00F6308F700853575
:10347400B7C7004023A627214DBF238F85FE17051C
:1034840000201305A57D2D35A1652285E124014584
:1034940023A6242175BF9707002023A1077C8280DF
:1034A40097170020938787809C4399E33E85828009
:1034B40003D727006316B70003C70700E308A7FE76
:1034C400DC47E5B7C9C1797122D406D626D24AD0E1
:1034D4004ECE01444147B3D78540858BA5C3120521
:1034E400314722953305E50297170020938707801B
:1034F40003A907008544B3948400C204C180BE8933
:103504002A990327090011C7032549002EC60297EB
:10351400B24531473304E40283A709003E941C44B6
:1035240089E72320090023220900B2502254A58DE3
:1035340002599254F2492E85456182800504E31CA8
:10354400E4F88144DDB72E8582804111139705018B
:1035540022C406C626C24AC041872E84635E070081
:10356400153511C1AD33A1673D8C2285B24022448B
:103574009244024941018280EDD9AA87014741461C
:10358400B356E440858A8DCE9207BA97B146B38785
:10359400D702970600209386667503A90600854422
:1035A400B394E400C204C1803E9983270900032533
:1035B400490082972320090023220900258C75B72E
:1035C4000507E31FC7FA8144D5BF411126C2B7C717
:1035D400004006C622C483A4C72023A607200F10D8
:1035E4000000970700209387A76C9C531384818065
:1035F40099C782971C403E9523A4A18039A09707C0
:1036040000209387276A9C43EDF71C40374703004B
:103614001307D73FB387E70237A72600130737EC12
:10362400B240BA9723A4F180B7C7004023A69720DD
:1036340008402244924441018280797126D2B7C75E
:10364400004006D622D44AD04ECE52CC56CA5AC8CE
:103654005EC662C483A4C72023A607200F100000FF
:1036640005E123A697200945B250225492540259E9
:10367400F249624AD24A424BB24B224C45618280A3
:1036840097070020938707629C43BA8A368AB28BD5
:103694002E8BAA89829797070020938727659843E2
:1036A4003E890144B146C147330CD4023306870135
:1036B400104241EAC165938505F0414597E0FF1F3B
:1036C400E780807105E1970700209387675E9C5B24
:1036D40081C7814511458297B7C7004023A697202B
:1036E4002D4559B7970700209387475C984331E7E6
:1036F4009707002023ACA75A23000500832709005D
:103704000547331787002326050023247501231159
:10371400E50023225501E29723A0370123A2670184
:1037240023A4570163040A0023008A00B7C700409A
:1037340023A6972001450DBF3E875C47F5FF48C788
:1037440065BF0504E312F4F6B7C7004023A697202B
:10375400214519BFB7C7004083A6C72023A6072069
:103764000F100000170700200347974F6373E5020B
:1037740017060020130646531317150008423A95FE
:1037840003570500D98D2310B50023A6D720014582
:10379400828023A6D7200D458280B7C7004083A628
:1037A400C72023A607200F10000017070020034797
:1037B400374B6375E502170600201306E64E131710
:1037C4001500084293C5F5FF3A9503570500F98D96
:1037D4002310B50023A6D7200145828023A6D72035
:1037E4000D458280011126CA37C7004006CE22CC7F
:1037F4004AC84EC652C48324C720232607200F106C
:103804000000130705FF1377F70FFD4763E5E70A89
:10381400B146B306D502970700209387274D9843F6
:1038240036971C43C9CB135A450005443D893315CB
:10383400A4001314050141802E895285A2858D317F
:10384400AA8929CDA2855285893F970700209387AD
:1038540067459C4382979707002083D7674A33873D
:1038640027032A84814613060064B3B7270313058C
:103874000732B335E500BE95EFA06123B307850099
:1038840097060020938646473E87D44263E4A70008
:1038940063E4D7003387D74023A4E900B7C70040C7
:1038A40023A697200145F2406244D2444249B249DA
:1038B400224A05618280B7C7004023A697200945A4
:1038C400DDB7797126D24ECEB7C4004006D622D4D5
:1038D4004AD052CC56CA5AC85EC683A9C42023A66D
:1038E40004200F1000009707002083C77737637AFE
:1038F400F500970700209387E73A83AB07006397A7
:103904000B00B7C7004023A63721A9A0170B00203E
:10391400130B8B3E832A4B00B74736FE938707C8A9
:103924002E8A9705002083D5A53DBE9AB387C5028C
:103934002A8432898146B3B5C50213850732B33769
:10394400F50013060064BE95EFA0611663F0AA02A9
:1039540023A634210145B250225492540259F2490B
:10396400624AD24A424BB24B45618280829B9705A0
:10397400002083D5E538B3872503AA8413060064A1
:103984008146B3B5250313850732B337F500BE95D9
:10399400EFA0E111B3079500BE8403274B0063E455
:1039A400A70063E4E700B384E740D2852285CD3CD9
:1039B40001C904C5B7C7004023A63721054561BF27
:1039C400936504F0C205C181414597E0FF1FE7807C
:1039D400A04019E9970700209387872D9C5B95D316
:1039E400A2851145829731BF970700209387072C42
:1039F4009C439DE39707002023AAA72A85472326F3
:103A0400050004C52311450123008500A300F5002A
:103A14002322050045B7BA87D84775FFC8C7F9BF41
:103A240079714ECEB7C7004006D622D426D24AD0EA
:103A340052CC56CA5AC85EC662C466C26AC083A95A
:103A4400C72023A607200F10000035C14144368942
:103A5400B28A2E8AAA84B14C170B0020130B0B29AF
:103A6400054D130C0003B30B940303270B005E975F
:103A74001C43B9EF9375F400B315BD0013554440CE
:103A8400C2055686C1811375F50F253D31C18327C3
:103A94000B00DE9784C323A24701630409002300BB
:103AA4008900B7C7004023A63721014521A023A6DA
:103AB40037210945B250225492540259F249624ABC
:103AC400D24A424BB24B224C924C024D4561828009
:103AD4000504E31A84F9B7C7004023A6372121451A
:103AE400D1BF011122CC26CA4AC84EC6B7C700406E
:103AF40006CE03A9C7202A84AE89B28423A6072050
:103B04000F1000007D3B2285CE85593A2A8405C5D5
:103B14009705002083D5C51EB3879502130600645C
:103B24008146B3B5950213850732B337F500BE95C8
:103B3400EF90F17748C013351400F2406244B7C7E0
:103B4400004023A62721D2444249B2490E0505610B
:103B54008280011122CC4AC84EC6B7C7004006CEA7
:103B640026CA83A9C7202A892E8423A607200F10DA
:103B74000000EFF0FF92AA8419C123110500A28569
:103B84004A8521399707002083C7870D639B270146
:103B94009707002083D7C7105D8C970700202391D7
:103BA4008710B7C7004023A63721014591E0194586
:103BB400F2406244D2444249B24905618280011113
:103BC40026CA4AC8B7C4004006CE22CC4EC603A9B2
:103BD400C42023A604200F1000009307F00263E81A
:103BE400A704B1473304F50297090020938909100B
:103BF40083A70900A2979C439DCB9377F500854545
:103C0400B395F500C205C1811181A13783A70900CD
:103C14000145A29723A0070023A2070023A624217D
:103C2400F2406244D2444249B24905618280B7C736
:103C3400004023A627210945E5B7411126C206C63F
:103C440022C4B7C7004083A4C72023A607200F10AF
:103C54000000EFF0FF8419E90145B2402244B7C7E0
:103C6400004023A6972092444101828097070020B8
:103C7400938747039C4300458297970700209387C7
:103C8400A7076368A402D843B74636FE938606C8DE
:103C94003305A4403697E371E5FC13070064B3359C
:103CA400E50203D6870081463305E502EF903160D3
:103CB4006DB7D8433A94C1BF0111680006CE22CC37
:103CC40026CAEFC0F008FD57630BF50AB247DDC3FF
:103CD400970700209387470297040020938444F8B1
:103CE4009448D8433E846387E6029707002093876D
:103CF40067FB9C438297B247984863F3E7003E878B
:103D0400B307A7003E85544063E4E70063E4D700AB
:103D14003385D74017040020130484171C4C81CF2B
:103D2400970700209387C71D94433707CDFF7D175E
:103D34009C46F98F9CC611E5970700209387C7FB23
:103D4400C843970700209387A7F6DC53829719E5A9
:103D54001C4C8DC3EFE05005EFD0705A1C4C99CB2E
:103D6400970700209387C7199843B70633001C4769
:103D7400D58F1CC7F2406244D24405618280970407
:103D840000209384E4ED170400201304E4F694481F
:103D94005840970700209387E7F09C436393E6021B
:103DA40082975440B74736FE938707C8B697338740
:103DB400A7003A856364F700E36ED7F43305D74070
:103DC40091BF829794485840B387A6003E8563E428
:103DD400D700E3E1E7F43385E7402DBF411106C680
:103DE4009707002023A8A7F00295B2409707002068
:103DF40023A4A7E8014541018280914763E9B70004
:103E04008A0597070020938767E8BE9588C182805A
:103E14009707002023AEA7EC11C58547170700209C
:103E24002301F7E88280411151468145170500209E
:103E34001305C5E506C69707002023A907E69707DB
:103E4400002023A907EA9707002023AD07E497077A
:103E54000020238807E49707002023AB07E897D0C6
:103E6400FF1FE780A04C1306800281451705002040
:103E7400130505DF97D0FF1FE780404BEF406147F4
:103E84009707002083C717E413D527008D8B3E9531
:103E94008D473305F502854539051375F50F9707E9
:103EA40000202380A7DC99473305F5021305052478
:103EB40097E0FF1FE78040F2170700202328A7E2BE
:103EC40059CD9947170600200346A6D93306F602B2
:103ED40081451306062497D0FF1FE78020459707E6
:103EE40000209387A7E09C439387072417070020AB
:103EF400232CF7D8170700200347A7D60A07BA9739
:103F0400170700202322F7DAEFF0EFD8A929970743
:103F14000020938767D794439707002083C757D41B
:103F240013972700369717F6FFFF1306E65910C3B9
:103F3400138717001377F70F0A07369717F6FFFF53
:103F44001306E66010C313873700890793F7F70F4A
:103F54008A0797050020A385E5D0B69790C3B240A1
:103F6400410182809707002083C797CF170700205D
:103F7400034727CF63F3E702170700201307C7D0CF
:103F840018439386170017060020A30BD6CC9396EC
:103F94002700369708C33E8582809307F00FE5BF5C
:103FA4001C416382071441777D8FB706002089473F
:103FB400631CD7120357450063080712411122C43A
:103FC40019462A849305F00F610506C697D0FF1F92
:103FD400E780204805478D476302E5101C4491C7DC
:103FE4005858994765CF185C75CB1306C0038145B3
:103FF400170500201305C5CB97D0FF1FE7800033BA
:104004001306C003A28517050020130565CA97D0BF
:10401400FF1FE780002B17070020035727CA9707C5
:1040240000209387E7C819E71307001097060020BC
:104034002396E6C817070020034767C811E705471A
:1040440097060020238DE6C617070020035747C7AD
:1040540011E76D47970600202394E6C61707002052
:104064000347F7C511E7154797060020A389E6C45F
:10407400170700200347E7C411E705479706002008
:104084002381E6C4170700200347B7C319E703C712
:10409400F70097060020A386E6C21707002003470F
:1040A40067C211E7554797060020238DE6C00347F2
:1040B400640119E71307C003970600202385E6C0AF
:1040C4009C5791C7829797070020239FA7B8FD5755
:1040D40017070020A308F7E8B9338147B240224408
:1040E4003E854101828089473E85828001114EC60A
:1040F40097090020938949C083A7090006CE22CCE2
:1041040026CA4AC852C4829713090064B3352503EA
:1041140003DA89008146528633052503EF9031196D
:10412400970700209387C7B3804FAA84014563068D
:10413400940233858440636E940003A5490052863B
:104144008146B335A9023305A902EF905116018DBA
:1041540026959707002023A197B2F2406244D244E7
:104164004249B249224A056182809707002083D7D9
:1041740047B951471D45637CF70279471945637870
:10418400F7021307200315456373F7021307B004FE
:104194001145637EF700130740060D456379F70068
:1041A4001307600909456374F70013B5B70F8280DC
:1041B400011122CC06CE2A842EC6EFF00FC1B245DF
:1041C400F240818D33A5A502229562441375F50F43
:1041D40005618280011122CC06CE2A842EC6EFF01E
:1041E400CFBEB245F240818D33A5A502229562442B
:1041F4004205418105618280011122CC06CE2A84C8
:104204002EC6EFF08FBCB245F240818D33B5A502C6
:10421400229562440561828097070020938747A90D
:10422400985739CB411122C426C206C6BE840297D0
:1042340017070020035747A32A8415CBBA87637353
:10424400A700AA87C207C183BA866373E400A28663
:10425400C206C182958F5147635BF700DC5491C35A
:104264008297EFE0601D97070020239F879EB2404E
:10427400224492444101828082809707002083C7B0
:1042840067A899C7054582800545F240056182808B
:10429400970700209387C7A1DC57011106CEAA8592
:1042A40081C72AC68297B245ADCD9C41F1DFDC417E
:1042B400E1DF83D78500E9DB83D7A500F1D7414649
:1042C40017050020130545A397D0FF1FE78060FF63
:1042D40097070020938747A29C43170700202323B6
:1042E400F79C9707002083C7179E8DE79307805795
:1042F400170500200355C5A03305F50237460F0006
:104304001306062481468145EF90617A97070020C1
:10431400A38BA79A17050000130585DDC134014559
:10432400ADB79707002023AB079497D7FF1F938758
:104334002750170700202321F79C7D57970700205B
:1043440023AEE79AB7873200938727A19706002008
:1043540023A8F69A970700202386079AB7C7004038
:1043640023A4E726B5B7011122CC170400201304B7
:104374002494084406CE26CA4AC801E90545F240F9
:104384006244D2444249056182805C58E5DB185C92
:1043940075D77000854582971844B247E300F7FE4D
:1043A4009305E004170500200355459197E0FF1F8E
:1043B400E78080A2170700202324A78C61D1170669
:1043C40000200356A68F9305F00F97D0FF1FE780B8
:1043D400E0F5814417090020130989889707002014
:1043E40083C7E78D0326090263C1F402328597E08F
:1043F400FF1FE78040AD01459707002023A20788EF
:104404009707002023A007889DBF9705002083D528
:10441400E58AB38795020844185C898185043E9532
:1044240008C2029765BF011156C2970A0020938AF9
:104434002A8883A78A0022CC4AC84EC606CE26CA3A
:1044440052C45AC0AA892E8432896386072203A7DC
:104454004A03630907141307F01F6367A71497F44B
:10446400FF1F9384E47F03AA040263170A0A956575
:10447400938515E0170500200355458497E0FF1F39
:10448400E780809597F7FF1F23ACA77E2A86630BEE
:10449400051083A74A0303A58A009705002083D546
:1044A400E5818981829783A78A0003AA040217F70A
:1044B400FF1F2329F77C8947639CF908C1476313CD
:1044C400F40E97F5FF1F83D5657F938505FC91470F
:1044D400B3C5F5028A05D29503C725009307A00545
:1044E400631EF70A83D70500639A370B4A85228631
:1044F400910597D0FF1FE780C0DC9C5052856393E1
:1045040047150145F2406244D2444249B249224A25
:10451400924A024B05618280D850E38EE7F8956594
:10452400938525E017F5FF1F0355457997E0FF1F95
:10453400E780808A2A8A3DC52A8683A74A0303A581
:104544008A0097F5FF1F83D5657789818297A5B780
:104554008D47639DF900C1476316F40497F5FF1F67
:1045640083D5C575938545FDF199B5B79147639A90
:10457400F9006319340397F5FF1F83D52574A1153A
:10458400E5B793070010639FF900A14763EC870028
:1045940097F5FF1F83D58572C115F9B79C505285D5
:1045A4006396470D2945B9BF1D6A568B6371450B48
:1045B400130A05E01947334AEA0217F7FF1F0357A6
:1045C400E76F97FAFF1F938AAA69330AEA023E9AB1
:1045D40083A74A026395470183A40A029DE49305D5
:1045E400E00417F5FF1F0355656D97D0FF1FE780A3
:1045F400A07EAA8445D983274B0397F5FF1F83D553
:10460400E56B2A8689815285829791451307A00517
:10461400898193972500A69783C627006393E604B0
:1046240083D60700639C360385058A052286A695F2
:104634004A8597D0FF1FE780C0C883A70A02E38298
:1046440097EC268597E0FF1FE780E0875DBD216733
:104654007917E369A7F4330A454185B783C5370061
:1046640045BF83A70A02E38F97F2268597E0FF1FD1
:10467400E780608505BF97F7FF1F9387675E8C53BC
:1046840095D191479306A0058983139727002E9708
:1046940003462700E318D6F003560700631C3601CF
:1046A40085078A072286BE954A8597D0FF1FE78033
:1046B40040C181BD83473700C1BF97F7FF1F938770
:1046C400275F984739C79C5FA9C705476313E5046B
:1046D400411122C417F4FF1F13048458105006C656
:1046E4000DC6485097F5FF1F83D5455D8981829794
:1046F400085097D0FF1FE780007D97F7FF1F23A185
:10470400075897F7FF1F23AF0756B24022444101D1
:1047140082808280011117F7FF1F130767594EC665
:104724008329870022CC26CA4AC806CE52C456C260
:10473400AA842E843289638B09201C5FBA8A99EB80
:104744002945F2406244D2444249B249224A924A3B
:10475400056182805C5BEDD79307F01F63EAA70EC7
:1047640097F9FF1F9389C94F83A70902B1CB03A50A
:104774008A0083A749026395A70689476393F408CF
:10478400C147E31FF4FA17F5FF1F0355255391475B
:10479400130505FC3345F5029317250003A509020B
:1047A4002286CA853E959307A0052301F5002310B0
:1047B4009500110597D0FF1FE780A0B0014551B7C0
:1047C4009305E00417F5FF1F0355454F97D0FF1FCE
:1047D400E780806097F7FF1F23A4A74A49F98DB7A4
:1047E40083A74A0303A6090297F5FF1F83D5054D46
:1047F4008981829783A78A0017F7FF1F2324F7482C
:10480400ADBF8D47639EF400C147E31BF4F217F577
:10481400FF1F0355A54A130545FD9377C5FFBDBF8B
:104824009147639AF400E31D94F017F5FF1F0355B5
:10483400E5482115DDB793070010E393F4F0A14791
:10484400E3E087F017F5FF1F035545474115F1B71E
:104854009D676379F506930705E01947B3C7E70237
:1048640017F7FF1F0357874517FAFF1F130A4A3F1D
:10487400B387E702BE9983270A02A1CF83274A029E
:104884006399370703250A0291461308A005930587
:10489400F00F93D72600139727002A970346270083
:1048A400631F06078358070003463700639598067D
:1048B400B306D64063CF860485078A072286CA8555
:1048C4003E95CDBD21677917E36CA7E6B307F540A4
:1048D40041BF9305E00417F5FF1F0355253E97D00C
:1048E400FF1FE780604F97F7FF1F23ABA73859F5E9
:1048F40081BD83A74A0303260A0297F5FF1F83D5C8
:10490400E53B89814E85829797F7FF1F23AC3737A4
:1049140095BF2310B70093160601C1829DBFB385CE
:10492400860017F6FF1F035666399105130606FC29
:10493400E3F8C5E013063400719A1106B296230118
:10494400070123109700A301D700BDB797F7FF1FF6
:10495400938707319453BE89A9C203A509029146DE
:104964001308A0059305F00F93D72600139727008B
:104974002A97034627006318060583580700034651
:10498400370063989800B306D640E3D786F2231025
:10499400B70093160601C182C1BF8357C70017F53C
:1049A400FF1F0345C5319305E0043305F5024205B5
:1049B400418197D0FF1FE780204297F7FF1F23A173
:1049C400A72C41FDB5BB17F6FF1F0356262F97F5FD
:1049D400FF1F83C5C52EB385C50233868600110625
:1049E400E3E0C5D681BF01458280011106CE2EC603
:1049F400EF70A07C01C9B245F24003552500056162
:104A04006FB09012F240494505618280A384018809
:104A14002384018823A8018623AA018623AC018666
:104A240023AE018623A6018623A4018697F7FF1FE0
:104A34009387872F930640382391D702F176130783
:104A4400400B938606B82391E7002392D70211679F
:104A54009D46130600059305000A1305007D239265
:104A6400E7002393D70241478546130810F823959E
:104A7400E7002396E7002399E700239AE700239BA6
:104A8400E700239CE7002394E70223900700239385
:104A9400B7002394B7002397C7002398C700239D2A
:104AA400A700239E0700239F070023900702239556
:104AB400D70223960703239707029308F007239846
:104AC40007022392E7042393E704239FE704239038
:104AD400E7062391E7062392E706239917031307B2
:104AE400C01C239AD702239BD702239C0702239D31
:104AF4000702239E0702239F0702239007042391A2
:104B0400D70423940704239507042396D7042397F3
:104B1400C7042398C7042399A704239A0704239B53
:104B24000704239C0704239DC704239EC7042393DF
:104B3400A7062394070623950706239607062397BB
:104B4400B7062398B70623990706239AE706514721
:104B5400239DE7067D57239B0706239C0706239E78
:104B6400D706239F0706239007092391E70882802D
:104B7400011126CAAA84214522CC06CE2E8432C62F
:104B840036C43AC2EFE08FF91DC9A2461247324635
:104B9400930700FD2300F5009947A3009500230126
:104BA400F5002303D500A303E5002312C500AA855D
:104BB40022856244F240D24405616FE01F85F240D1
:104BC4006244D2440561828023A8A186828023AAFC
:104BD400A186828023ACA186828023AEA1868280B6
:104BE400011122CC4AC806CE26CA2A890144B3043C
:104BF40089006368B400F2406244D24442490561CA
:104C040082802EC6EFE07F9C93170501C183A183A8
:104C1400B2452380F4009307140093F7F70F85043B
:104C240063F9B700CA9709042380A7001374F40F2B
:104C34007DBF3E847DBFC16717F5FF1F0355250D5A
:104C4400FD176304F502411117F6FF1F0346862181
:104C54009385018806C6EF704034B240FD5717F7BC
:104C6400FF1F2316F70A41018280828009C9251596
:104C74001375F50F1335850E134515008280014514
:104C8400828023900500C9C6797122D426D24ECEE3
:104C940052CC5AC806D64AD056CA5EC63684328A20
:104CA400AE892A8B814463F34407B307940083C716
:104CB4000700138914004209939A070193DA0A0141
:104CC4001359090163840A04CA976341FA04B307B8
:104CD400240183CB07005E85513F0DC99387FAFFFA
:104CE4002390F90063906B03130519002295B250C9
:104CF400225492540259F249624AD24A424BB24B6C
:104D040045618280D694C204C18071BF0145C5B794
:104D140001458280411126C2AE8422C497F7FF1F49
:104D240023AEC7FE97F7FF1F23A8B7FE97F7FF1F11
:104D340023A2A7FE2A8441469305F00F26854AC084
:104D440006C6054997C0FF1FE780A07063102505BC
:104D540097F7FF1F938747FB884BC1455135414661
:104D64009305F00F228597C0FF1FE780806E85446E
:104D740063189502224497F7FF1F9387E7F8B24020
:104D840092440249C847C145410199BD4146814504
:104D9400268597C0FF1FE780C06BE31225FD4DBF3A
:104DA40041468145228597C0FF1FE780806AE3035F
:104DB40095FCB2402244924402494101828041114F
:104DC40022C426C22E84AA8413060002814517F544
:104DD400FF1F130565F306C697C0FF1FE780005544
:104DE40097F7FF1FA38397F297F7FF1F238E87067A
:104DF400EFB08055854719C181474945B2402244E7
:104E040017F7FF1F2302F7F0924441018280814784
:104E140081CD19C98547631BF50083C7550093E706
:104E240007FCA382F50085473E8582808947631786
:104E3400F50083C7550093F7F703E5B70D4785479A
:104E4400E314E5FE03C755001377F703136707045C
:104E5400A382E500D1BF81478DC105C103C75500B9
:104E64009306000C85471377070C6308D700930655
:104E740000048D476303D70089473E858280411132
:104E840022C4005D06C626C21DC8AA84085009C5EE
:104E940097D0FF1FE7802003485009C597D0FF1F14
:104EA400E7806002085409C597D0FF1FE780A0017E
:104EB400228597D0FF1FE780000123AC0402B24093
:104EC400224492444101828009ED97F7FF1F83C772
:104ED400C7E317F5FF1F1305A5E481CB13850186EE
:104EE400828017F5FF1F1305A5E3828017F5FF1FC6
:104EF4000345A5E1828097F7FF1F9387E7E0C84742
:104F0400828097F7FF1F938727E0884B828097F76B
:104F1400FF1F938767DFDC4B8843828097F7FF1F6F
:104F2400938787DED84B1C4385071CC317F5FF1FE7
:104F34000345B5DD9307F00F6305F50091656FE058
:104F44007F818280011122CC06CE2E8432C6EF707E
:104F540080379147B245631FF5009387C1879C430F
:104F64008DC303A30700630E030022856244F2404D
:104F740005610283938741879C4381C703A347004C
:104F8400DDB7F2406244054505618280011122CCFF
:104F94002A840355450006CE26CA4AC84EC6EF7079
:104FA400A01035C52A89834405008349C500C13D45
:104FB4004A85EF70606C03554400EF70002C83C782
:104FC4008188B1CB6399970483C591882685EFF0D6
:104FD400DFA119E12384018803554400EF70A02E5A
:104FE4009147631FF5000357440097F7FF1F83D7CA
:104FF40007D26317F700FD5717F7FF1F2319F7D0E0
:10500400F2406244D2444249B249056182808149F6
:105014009304F00F6DB79307F00FE38FF4FA834610
:10502400640003564400034524004E87A685893650
:1050340065B779715EC6AA8B2E8552CC56CA5AC8FA
:1050440006D622D426D24AD04ECEAE8A328B368AA7
:10505400EF7080057DC1045D2A89E5C09C506145DF
:1050640099C3130540039C5481C7510542054181EE
:1050740063050A00710542054181DC5081C75D0565
:1050840042054181EFE08FA92A8445C961468145E3
:1050940097C0FF1FE780802997F9FF1F83C9C9CBF9
:1050A4006394090083490900930700FD2300F40079
:1050B400A947A30074012301F400230364018C5065
:1050C400231254011305840191C908C47146930A3B
:1050D400440397C0FF1FE780C01E56858C5491C9B6
:1050E40048C45146930A450197C0FF1FE780601DDD
:1050F4005685630C0A0008C87146D285930AC50117
:1051040097C0FF1FE780E01B5685CC5099C548C85F
:105114005D4697C0FF1FE780C01AA2854E85EFE069
:10512400CFAE2254B2509254F249624AD24A424B10
:10513400B24B4A850259456199B3B25022549254F4
:105144000259F249624AD24A424BB24B45618280CB
:1051540001114EC6AA892E854AC806CE22CC26CA7B
:105164002E89EF60707421C997F4FF1F83C4C4BEF5
:1051740099E0834405001945EFE04F9A2A8405CD50
:105184008145194697C0FF1FE780401A930700FD29
:105194002300F400B947A30034012301F4002312CF
:1051A4002401A2856244F2404249B2492685D24490
:1051B40005616FE08FA5F2406244D2444249B2498E
:1051C4000561828039715ECEAA8B2E8526DA4ED691
:1051D40052D456D25AD006DE22DC4AD8AE84328B60
:1051E400B68A3A8ABE8942C6EF60106C21CD2A89FC
:1051F4004145EFE0AF922A8431C54146814597C0CD
:10520400FF1FE780A01217F5FF1F0345E5B419E15E
:1052140003450900930700FD2300F400BD47230163
:10522400F400B247A3007401231294002304640120
:10523400A304540123054401A30534015CC4A285DD
:10524400EFE0AF9CF2506254D2544259B259225A00
:10525400925A025BF24B21618280797126D2AA8430
:1052640039454AD04ECE06D622D42EC6B2893689C6
:10527400EFE0CF8A21C1B2459307000D2310F5005A
:10528400B1472A842312B5002301F500CE85190500
:10529400194697C0FF1FE780C00223062401A28598
:1052A4002254B2500259F24913F5F40F9254456155
:1052B4006FE0AF95B250225492540259F2494561BD
:1052C400828017F7FF1F034757A49307F00F630D5E
:1052D400F706411126C2AA84394522C406C64AC02B
:1052E400EFE0CF832A8439C9930700FD2300F5003A
:1052F400A30095002301050097F5FF1F938545A2A0
:105304000D05194697C0FF1FE780A0FB17F9FF1F83
:105314001309899F83578900A28517F5FF1F034549
:10532400D59E2315F400834719002306F400224474
:10533400B2409244024941016FE02F8DB2402244B1
:105344009244024941018280828001115AC02A8B11
:10535400314526CA4EC652C456C206CE22CC4AC8CD
:10536400AE84B28A368ABA89EFD05FFB35CD2A84FF
:105374002685EF60705311C50347C500A147631428
:10538400F70417F9FF1F03495998930700FD2300F9
:10539400F4009D47A30064012301F4002312940048
:1053A400231354012314440123153401A2856244B8
:1053B400F240D244B249224A924A024B4A854249B7
:1053C40005616FE08F8417F9FF1F0349F9A9E31EF4
:1053D4000BFA938741919C439C47C5DBCE8652864A
:1053E400D6852685829755B7F2406244D244424915
:1053F400B249224A924A024B05618280011122CCB1
:105404002A84214506CE2EC6EFD05FF121C1B245D4
:10541400930700FD2300F500C5472301F50083C76A
:105424003500A301F50083D745002312F50083C797
:1054340065002303F50083C77500AA85A303F5005F
:1054440022856244F24005616FD03FFCF240624421
:1054540005618280397162CC2A8C594526DA4AD892
:105464004ED652D456D25AD05ECE06DE22DCAE845C
:1054740032C636C4BA8B3E8BC28A468A835901042B
:1054840003494104EFD09FE925C93246930700FD43
:10549400A2462300F5009547A301C500A30085019A
:1054A4002301F5002A8419461105A9C2B68597C0BF
:1054B400FF1FE78000E123066401230A240123156A
:1054C4007401231754012318440123193401A285BC
:1054D4006254F2504259B259225A925A025BF24B28
:1054E400624C2685D25421616FD03FF2814597C02A
:1054F400FF1FE780A0E3C1B7F2506254D25442596F
:10550400B259225A925A025BF24B624C2161828058
:1055140097E7FF1F83C7677F8DCB4111AA85194683
:105524001385018606C697C0FF1FE78080D993853F
:10553400018617E5FF1F0345457DEFF05F8DB240FF
:105544001385018641016FA0B0600145828017E791
:10555400FF1F0347977B9307F00F6305F70841117B
:1055640026C2AA84294522C406C6EFD03FDB2A847A
:1055740029C1930700FD2300F500A1472301F5008D
:10558400A300950097E7FF1F9387077883C7270039
:10559400938501861105A30FF5FE194697C0FF1FD9
:1055A400E78020D2A28517E5FF1F03451576EFD0CB
:1055B400DFE517E7FF1F034747758D47631FF700B4
:1055C400938781879C4391CB03A3870063070300E0
:1055D4002244B240924441010283B24022449244A4
:1055E4004101828017E7FF1F034727728D47631A23
:1055F400F700938781879C4389C703A38700E31D32
:1056040003FC8280797122D406D626D24AD04ECEAB
:1056140052CC094455CD2A89035505002E8A51449C
:10562400EF609028AA844DC597F7FF1F83C7C783EF
:10563400FD1793F7F70F05474944637BF7080347C2
:10564400C500A1476314F70063140A089C5C454431
:10565400C1E39165938545711305C00297C0FF1F8F
:10566400E780807788DCAA894D443DC11306C002D7
:10567400814597C0FF1FE78060CB8357090093865D
:10568400490036852391F90071469305490036C6D1
:1056940097C0FF1FE780E0C289472380F90003C554
:1056A400C400B24603560900611597E5FF1F83C580
:1056B400657B13351500EF7070422A8463060A0077
:1056C400D2852685EF70202B01C42685EFF02FFBB1
:1056D4002285B250225492540259F249624A4561D9
:1056E400828097E7FF1F83C72778FD1793F7F70F8B
:1056F4000547637AF708894741CA011122CC26CAB3
:105704004AC84EC652C406CEAA89368AB2842E89A5
:10571400EF6090192A84D14739C9485509C597C003
:10572400FF1FE780407AF145268597C0FF1FE78079
:1057340080C548D4CD4705CD8346C4002147814761
:10574400639FE600630D0A000347A50103560501A4
:1057540093062501AA854E85EF70A029AA870347E1
:105764004400630F0900136767002302E400F2405A
:105774006244D2444249B249224A3E85056182804C
:1057840013674700DDB7C9473E858280930700044D
:1057940063EBA70097E7FF1F9387075906053E951C
:1057A40003550500828041657D158280011122CC5C
:1057B4002A842E8526CA06CEAE84EF60F00E1DCD57
:1057C400B7470F009387F723094563E487028145B0
:1057D4000A85414697C0FF1FE78040B5A685231080
:1057E40081000A85418023018100A3010100EF703B
:1057F400B01AF2406244D244056182804945D5BF63
:1058040097E7FF1F2381A76682806F705027797105
:1058140052CC2A8A328522D426D24AD04ECE56CAB7
:105824005AC85EC606D662C4AE8BB28A368BBA84B8
:105834003E89C2894684EF60300715C92A8C6314F7
:105844000A0213774B008347450015CF93E72701DE
:105854002302FC008DEC631C0902639A090205E82B
:10586400ED9B2302FC00832B8C0363910B08B25045
:10587400225492540259F249624AD24A424BB24BE0
:10588400224C45618280F59B93E70701D1B793E7EA
:1058940047002302FC0001CC1C484146A285232476
:1058A400FC0213058C0197C0FF1FE78080A163935E
:1058B4000B02D5D80325CC0209C597C0FF1FE7808A
:1058C4008060F145268597C0FF1FE780C0AB232683
:1058D400AC0251BFE30909F80325CC0209C597C0FE
:1058E400FF1FE780405EF1454A85F1BF9DC483A751
:1058F4000B0299EB916593853571714597C0FF1F34
:10590400E780804D23A0AB0203A50B0219C57146A5
:10591400A68597C0FF1FE780C09A6388090283A702
:105924004B0299EB9165938525715D4597C0FF1FE7
:10593400E780804A23A2AB0203A54B0219C55D464A
:10594400CE8597C0FF1FE780C0971DC483A78B0235
:1059540099EB916593851571514597C0FF1FE780B9
:10596400A04723A4AB0203A58B0219C55146A28507
:1059740097C0FF1FE780E0942254B2509254F2493A
:10598400B24B224CCA865A860259424BD68552855E
:10599400D24A624A45616FF0CFE9011126CA52C466
:1059A40006CE22CC4AC84EC62A8AAE84EF60C06FA7
:1059B40025C5AA893945EFD07F962A8431CD17E9C8
:1059C400FF1F034969396314090003C909009307D8
:1059D400000D2310F400AD472301F4009385690002
:1059E40013053400194697C0FF1FE780808D93F795
:1059F4001400858085882306F400A30694002315EB
:105A04004401A2856244F240D244B249224A4A8502
:105A1400424905616FD07F9FF2406244D2444249BB
:105A2400B249224A0561828001114EC652C456C24F
:105A340006CE22CC26CA4AC8AA8A2E8AB289EF6028
:105A4400A0662DCD2A891305C002EFD03F8D2A848C
:105A540035C597E4FF1F83C4243099E083440900CB
:105A64009307000D2310F400E9472301F400930584
:105A7400690013053400194697C0FF1FE78060844E
:105A8400D285231554011305C400414697C0FF1F56
:105A9400E7802083CE851305C401414697C0FF1FCC
:105AA400E7802082A2856244F2404249B249224AF8
:105AB400924A2685D24405616FD03F95F2406244F4
:105AC400D2444249B249224A924A0561828093876C
:105AD4008186884301CD411106C697C0FF1FE78028
